{
  "abi": [
    {
      "inputs": [],
      "stateMutability": "nonpayable",
      "type": "constructor"
    },
    {
      "inputs": [],
      "name": "AmountOfValidatorDetailsExceedsLimit",
      "type": "error"
    },
    {
      "inputs": [
        {
          "internalType": "bytes",
          "name": "existingKey",
          "type": "bytes"
        }
      ],
      "name": "CannotAddDuplicatePubKey",
      "type": "error"
    },
    {
      "inputs": [],
      "name": "CannotBeZeroAddress",
      "type": "error"
    },
    {
      "inputs": [],
      "name": "CannotUseDisabledOperator",
      "type": "error"
    },
    {
      "inputs": [],
      "name": "InvalidArrayLengthOfZero",
      "type": "error"
    },
    {
      "inputs": [],
      "name": "InvalidMethodCall",
      "type": "error"
    },
    {
      "inputs": [],
      "name": "InvalidPubKeyLength",
      "type": "error"
    },
    {
      "inputs": [],
      "name": "InvalidPubKeySetupCaller",
      "type": "error"
    },
    {
      "inputs": [],
      "name": "InvalidSignatureLength",
      "type": "error"
    },
    {
      "inputs": [
        {
          "internalType": "bytes",
          "name": "pubKey",
          "type": "bytes"
        }
      ],
      "name": "MissingActiveValidatorDetails",
      "type": "error"
    },
    {
      "inputs": [
        {
          "internalType": "bytes",
          "name": "pubKey",
          "type": "bytes"
        }
      ],
      "name": "MissingPendingValidatorDetails",
      "type": "error"
    },
    {
      "inputs": [
        {
          "internalType": "bytes",
          "name": "foundPubKey",
          "type": "bytes"
        },
        {
          "internalType": "bytes",
          "name": "providedPubKey",
          "type": "bytes"
        }
      ],
      "name": "NextOperatorPubKeyMismatch",
      "type": "error"
    },
    {
      "inputs": [
        {
          "internalType": "address",
          "name": "operator",
          "type": "address"
        }
      ],
      "name": "NoOperatorFound",
      "type": "error"
    },
    {
      "inputs": [
        {
          "internalType": "bytes",
          "name": "pubKey",
          "type": "bytes"
        }
      ],
      "name": "NoPubKeyFound",
      "type": "error"
    },
    {
      "inputs": [],
      "name": "NoTokensToWithdraw",
      "type": "error"
    },
    {
      "inputs": [],
      "name": "OperatorAlreadyDisabled",
      "type": "error"
    },
    {
      "inputs": [],
      "name": "OperatorAlreadyEnabled",
      "type": "error"
    },
    {
      "inputs": [
        {
          "internalType": "address",
          "name": "operator",
          "type": "address"
        }
      ],
      "name": "OperatorAlreadyExists",
      "type": "error"
    },
    {
      "inputs": [],
      "name": "OperatorMethodsPaused",
      "type": "error"
    },
    {
      "inputs": [],
      "name": "OperatorOutOfPendingKeys",
      "type": "error"
    },
    {
      "anonymous": false,
      "inputs": [
        {
          "indexed": false,
          "internalType": "bytes[]",
          "name": "pubKeys",
          "type": "bytes[]"
        }
      ],
      "name": "ActivePubKeysDeleted",
      "type": "event"
    },
    {
      "anonymous": false,
      "inputs": [
        {
          "indexed": false,
          "internalType": "uint8",
          "name": "version",
          "type": "uint8"
        }
      ],
      "name": "Initialized",
      "type": "event"
    },
    {
      "anonymous": false,
      "inputs": [
        {
          "indexed": false,
          "internalType": "address",
          "name": "operatorAddress",
          "type": "address"
        },
        {
          "indexed": false,
          "internalType": "address",
          "name": "rewardAddress",
          "type": "address"
        }
      ],
      "name": "OperatorAdded",
      "type": "event"
    },
    {
      "anonymous": false,
      "inputs": [
        {
          "indexed": true,
          "internalType": "address",
          "name": "operator",
          "type": "address"
        },
        {
          "components": [
            {
              "internalType": "bytes",
              "name": "pubKey",
              "type": "bytes"
            },
            {
              "internalType": "bytes",
              "name": "signature",
              "type": "bytes"
            }
          ],
          "indexed": false,
          "internalType": "struct INodeOperatorRegistry.ValidatorDetails[]",
          "name": "pubKeys",
          "type": "tuple[]"
        }
      ],
      "name": "OperatorAddedValidatorDetails",
      "type": "event"
    },
    {
      "anonymous": false,
      "inputs": [
        {
          "indexed": true,
          "internalType": "address",
          "name": "operator",
          "type": "address"
        }
      ],
      "name": "OperatorDisabled",
      "type": "event"
    },
    {
      "anonymous": false,
      "inputs": [
        {
          "indexed": true,
          "internalType": "address",
          "name": "operator",
          "type": "address"
        }
      ],
      "name": "OperatorEnabled",
      "type": "event"
    },
    {
      "anonymous": false,
      "inputs": [
        {
          "indexed": false,
          "internalType": "bytes[]",
          "name": "pubKeys",
          "type": "bytes[]"
        }
      ],
      "name": "PendingPubKeysDeleted",
      "type": "event"
    },
    {
      "anonymous": false,
      "inputs": [
        {
          "indexed": false,
          "internalType": "bytes[]",
          "name": "pubKeys",
          "type": "bytes[]"
        }
      ],
      "name": "PubKeysUsedForValidatorSetup",
      "type": "event"
    },
    {
      "stateMutability": "nonpayable",
      "type": "fallback"
    },
    {
      "inputs": [],
      "name": "AccessControlManager",
      "outputs": [
        {
          "internalType": "contract IAccessControlManager",
          "name": "",
          "type": "address"
        }
      ],
      "stateMutability": "view",
      "type": "function"
    },
    {
      "inputs": [
        {
          "components": [
            {
              "internalType": "bytes",
              "name": "pubKey",
              "type": "bytes"
            },
            {
              "internalType": "bytes",
              "name": "signature",
              "type": "bytes"
            }
          ],
          "internalType": "struct INodeOperatorRegistry.ValidatorDetails[]",
          "name": "_validatorDetails",
          "type": "tuple[]"
        }
      ],
      "name": "addNewValidatorDetails",
      "outputs": [],
      "stateMutability": "nonpayable",
      "type": "function"
    },
    {
      "inputs": [
        {
          "internalType": "string",
          "name": "_name",
          "type": "string"
        },
        {
          "internalType": "address",
          "name": "_operatorAddress",
          "type": "address"
        },
        {
          "internalType": "address",
          "name": "_rewardAddress",
          "type": "address"
        }
      ],
      "name": "addOperator",
      "outputs": [],
      "stateMutability": "nonpayable",
      "type": "function"
    },
    {
      "inputs": [
        {
          "internalType": "bytes[]",
          "name": "_pubKeys",
          "type": "bytes[]"
        }
      ],
      "name": "deleteActiveValidators",
      "outputs": [],
      "stateMutability": "nonpayable",
      "type": "function"
    },
    {
      "inputs": [
        {
          "internalType": "bytes[]",
          "name": "_pubKeys",
          "type": "bytes[]"
        }
      ],
      "name": "deletePendingValidators",
      "outputs": [],
      "stateMutability": "nonpayable",
      "type": "function"
    },
    {
      "inputs": [
        {
          "internalType": "address",
          "name": "_operatorAddress",
          "type": "address"
        }
      ],
      "name": "disableOperator",
      "outputs": [],
      "stateMutability": "nonpayable",
      "type": "function"
    },
    {
      "inputs": [
        {
          "internalType": "address",
          "name": "_operatorAddress",
          "type": "address"
        }
      ],
      "name": "enableOperator",
      "outputs": [],
      "stateMutability": "nonpayable",
      "type": "function"
    },
    {
      "inputs": [
        {
          "internalType": "uint256",
          "name": "_numNewValidators",
          "type": "uint256"
        }
      ],
      "name": "getNextValidatorDetails",
      "outputs": [
        {
          "components": [
            {
              "internalType": "bytes",
              "name": "pubKey",
              "type": "bytes"
            },
            {
              "internalType": "bytes",
              "name": "signature",
              "type": "bytes"
            }
          ],
          "internalType": "struct INodeOperatorRegistry.ValidatorDetails[]",
          "name": "validatorDetails",
          "type": "tuple[]"
        },
        {
          "internalType": "uint256",
          "name": "foundValidators",
          "type": "uint256"
        }
      ],
      "stateMutability": "view",
      "type": "function"
    },
    {
      "inputs": [
        {
          "internalType": "address",
          "name": "_operatorAddress",
          "type": "address"
        }
      ],
      "name": "getOperator",
      "outputs": [
        {
          "components": [
            {
              "internalType": "bool",
              "name": "enabled",
              "type": "bool"
            },
            {
              "internalType": "address",
              "name": "rewardAddress",
              "type": "address"
            },
            {
              "internalType": "address",
              "name": "controllingAddress",
              "type": "address"
            },
            {
              "internalType": "string",
              "name": "name",
              "type": "string"
            },
            {
              "internalType": "uint128",
              "name": "activeValidators",
              "type": "uint128"
            }
          ],
          "internalType": "struct INodeOperatorRegistry.Operator",
          "name": "operator",
          "type": "tuple"
        },
        {
          "internalType": "uint128",
          "name": "totalValidatorDetails",
          "type": "uint128"
        },
        {
          "internalType": "uint128",
          "name": "operatorId",
          "type": "uint128"
        }
      ],
      "stateMutability": "view",
      "type": "function"
    },
    {
      "inputs": [
        {
          "internalType": "uint128",
          "name": "",
          "type": "uint128"
        }
      ],
      "name": "getOperatorForOperatorId",
      "outputs": [
        {
          "internalType": "bool",
          "name": "enabled",
          "type": "bool"
        },
        {
          "internalType": "address",
          "name": "rewardAddress",
          "type": "address"
        },
        {
          "internalType": "address",
          "name": "controllingAddress",
          "type": "address"
        },
        {
          "internalType": "string",
          "name": "name",
          "type": "string"
        },
        {
          "internalType": "uint128",
          "name": "activeValidators",
          "type": "uint128"
        }
      ],
      "stateMutability": "view",
      "type": "function"
    },
    {
      "inputs": [
        {
          "internalType": "address",
          "name": "",
          "type": "address"
        }
      ],
      "name": "getOperatorIdForAddress",
      "outputs": [
        {
          "internalType": "uint128",
          "name": "",
          "type": "uint128"
        }
      ],
      "stateMutability": "view",
      "type": "function"
    },
    {
      "inputs": [
        {
          "internalType": "bytes",
          "name": "",
          "type": "bytes"
        }
      ],
      "name": "getOperatorIdForPubKey",
      "outputs": [
        {
          "internalType": "uint128",
          "name": "",
          "type": "uint128"
        }
      ],
      "stateMutability": "view",
      "type": "function"
    },
    {
      "inputs": [
        {
          "internalType": "address",
          "name": "_operatorAddress",
          "type": "address"
        }
      ],
      "name": "getOperatorsActiveValidatorDetails",
      "outputs": [
        {
          "components": [
            {
              "internalType": "bytes",
              "name": "pubKey",
              "type": "bytes"
            },
            {
              "internalType": "bytes",
              "name": "signature",
              "type": "bytes"
            }
          ],
          "internalType": "struct INodeOperatorRegistry.ValidatorDetails[]",
          "name": "validatorDetails",
          "type": "tuple[]"
        }
      ],
      "stateMutability": "view",
      "type": "function"
    },
    {
      "inputs": [
        {
          "internalType": "address",
          "name": "_operatorAddress",
          "type": "address"
        }
      ],
      "name": "getOperatorsPendingValidatorDetails",
      "outputs": [
        {
          "components": [
            {
              "internalType": "bytes",
              "name": "pubKey",
              "type": "bytes"
            },
            {
              "internalType": "bytes",
              "name": "signature",
              "type": "bytes"
            }
          ],
          "internalType": "struct INodeOperatorRegistry.ValidatorDetails[]",
          "name": "validatorDetails",
          "type": "tuple[]"
        }
      ],
      "stateMutability": "view",
      "type": "function"
    },
    {
      "inputs": [
        {
          "internalType": "uint256",
          "name": "_startIndex",
          "type": "uint256"
        },
        {
          "internalType": "uint256",
          "name": "_endIndex",
          "type": "uint256"
        }
      ],
      "name": "getPoRAddressList",
      "outputs": [
        {
          "internalType": "string[]",
          "name": "",
          "type": "string[]"
        }
      ],
      "stateMutability": "view",
      "type": "function"
    },
    {
      "inputs": [],
      "name": "getPoRAddressListLength",
      "outputs": [
        {
          "internalType": "uint256",
          "name": "",
          "type": "uint256"
        }
      ],
      "stateMutability": "view",
      "type": "function"
    },
    {
      "inputs": [
        {
          "internalType": "uint128",
          "name": "_operatorId",
          "type": "uint128"
        }
      ],
      "name": "getRewardDetailsForOperatorId",
      "outputs": [
        {
          "internalType": "address",
          "name": "rewardAddress",
          "type": "address"
        },
        {
          "internalType": "uint128",
          "name": "activeValidators",
          "type": "uint128"
        }
      ],
      "stateMutability": "view",
      "type": "function"
    },
    {
      "inputs": [
        {
          "internalType": "contract IAccessControlManager",
          "name": "_accessControlManager",
          "type": "address"
        }
      ],
      "name": "initialize",
      "outputs": [],
      "stateMutability": "nonpayable",
      "type": "function"
    },
    {
      "inputs": [],
      "name": "numOperators",
      "outputs": [
        {
          "internalType": "uint128",
          "name": "",
          "type": "uint128"
        }
      ],
      "stateMutability": "view",
      "type": "function"
    },
    {
      "inputs": [],
      "name": "numPendingValidators",
      "outputs": [
        {
          "internalType": "uint256",
          "name": "",
          "type": "uint256"
        }
      ],
      "stateMutability": "view",
      "type": "function"
    },
    {
      "inputs": [
        {
          "internalType": "address",
          "name": "_operatorAddress",
          "type": "address"
        },
        {
          "internalType": "address",
          "name": "_newOperatorAddress",
          "type": "address"
        }
      ],
      "name": "updateOperatorControllingAddress",
      "outputs": [],
      "stateMutability": "nonpayable",
      "type": "function"
    },
    {
      "inputs": [
        {
          "internalType": "address",
          "name": "_operatorAddress",
          "type": "address"
        },
        {
          "internalType": "string",
          "name": "_name",
          "type": "string"
        }
      ],
      "name": "updateOperatorName",
      "outputs": [],
      "stateMutability": "nonpayable",
      "type": "function"
    },
    {
      "inputs": [
        {
          "internalType": "address",
          "name": "_operatorAddress",
          "type": "address"
        },
        {
          "internalType": "address",
          "name": "_newRewardAddress",
          "type": "address"
        }
      ],
      "name": "updateOperatorRewardAddress",
      "outputs": [],
      "stateMutability": "nonpayable",
      "type": "function"
    },
    {
      "inputs": [
        {
          "internalType": "bytes[]",
          "name": "_pubKeys",
          "type": "bytes[]"
        }
      ],
      "name": "usePubKeysForValidatorSetup",
      "outputs": [
        {
          "components": [
            {
              "internalType": "bytes",
              "name": "pubKey",
              "type": "bytes"
            },
            {
              "internalType": "bytes",
              "name": "signature",
              "type": "bytes"
            }
          ],
          "internalType": "struct INodeOperatorRegistry.ValidatorDetails[]",
          "name": "validatorDetails",
          "type": "tuple[]"
        }
      ],
      "stateMutability": "nonpayable",
      "type": "function"
    },
    {
      "inputs": [
        {
          "internalType": "contract IERC20",
          "name": "_token",
          "type": "address"
        }
      ],
      "name": "withdrawERC20",
      "outputs": [],
      "stateMutability": "nonpayable",
      "type": "function"
    }
  ],
  "bytecode": {
    "object": "0x60806040523480156200001157600080fd5b506200001c62000022565b620000e3565b600054610100900460ff16156200008f5760405162461bcd60e51b815260206004820152602760248201527f496e697469616c697a61626c653a20636f6e747261637420697320696e697469604482015266616c697a696e6760c81b606482015260840160405180910390fd5b60005460ff90811614620000e1576000805460ff191660ff9081179091556040519081527f7f26b83ff96e1f2b6a682f133852f6798a09c465da95921460cefb38474024989060200160405180910390a15b565b6141f080620000f36000396000f3fe608060405234801561001057600080fd5b50600436106101735760003560e01c8063902340a1116100de578063e3b2918b11610097578063f3d4902a11610071578063f3d4902a14610406578063f4f3b20014610426578063f56408ed14610439578063f75f35b91461044c57610173565b8063e3b2918b146103d7578063e8f28a6c146103e0578063eda74e71146103f357610173565b8063902340a1146103475780639f5db69c14610378578063bd8206881461038b578063c39535021461039e578063c4d66de8146103b1578063dd307b99146103c457610173565b8063519d97fe11610130578063519d97fe1461025f57806354741d6d146102c85780635865c60c146102db57806360ec5216146102fd5780636847aea0146103105780637ea790ee1461033457610173565b8063023e8ecb1461018b57806302f56f04146101b5578063242eba0e1461020157806332f7325814610216578063422544d2146102295780634f20b88814610249575b60405162393b6d60e11b815260040160405180910390fd5b61019e610199366004613581565b610475565b6040516101ac929190613668565b60405180910390f35b6101e96101c336600461372c565b80516020818301810180516008825292820191909301209152546001600160801b031681565b6040516001600160801b0390911681526020016101ac565b61021461020f3660046137ab565b610761565b005b610214610224366004613801565b6109e6565b61023c61023736600461383a565b610ae4565b6040516101ac9190613857565b610251610b7c565b6040519081526020016101ac565b6102a161026d36600461386a565b6001600160801b0390811660009081526002602052604090206003810154905461010090046001600160a01b031692911690565b604080516001600160a01b0390931683526001600160801b039091166020830152016101ac565b6102146102d63660046138d4565b610b8d565b6102ee6102e936600461383a565b610e3f565b6040516101ac9392919061393b565b61021461030b3660046137ab565b610f96565b61032361031e36600461386a565b611398565b6040516101ac9594939291906139b2565b61023c61034236600461383a565b61146b565b600054610360906201000090046001600160a01b031681565b6040516001600160a01b0390911681526020016101ac565b610214610386366004613a01565b6114f5565b6001546101e9906001600160801b031681565b61023c6103ac3660046137ab565b61158f565b6102146103bf36600461383a565b611905565b6102146103d236600461383a565b611a3c565b61025160055481565b6102146103ee366004613801565b611b27565b6102146104013660046137ab565b611bdd565b610419610414366004613a55565b611ead565b6040516101ac9190613a77565b61021461043436600461383a565b61205e565b61021461044736600461383a565b61217b565b6101e961045a36600461383a565b6003602052600090815260409020546001600160801b031681565b60606000826001600160401b038111156104915761049161368a565b6040519080825280602002602001820160405280156104d657816020015b60408051808201909152606080825260208201528152602001906001900390816104af5790505b50600180549193506000916104f6916001600160801b0390911690613aef565b6001600160801b03166001600160401b038111156105165761051661368a565b60405190808252806020026020018201604052801561053f578160200160208202803683370190505b50905060005b8483101561075a57600060015b6001546001600160801b03908116908216116106aa576001600160801b03811660009081526002602052604090205460ff161561069857600084826001600160801b0316815181106105a6576105a6613b0f565b6020908102919091018101516001600160801b03808516600090815260029093526040909220600301546105da9216613aef565b6001600160801b03838116600090815260046020526040902054919250821690036106055750610698565b6001600160801b038116158015610647575084826001600160801b03168151811061063257610632613b0f565b60200260200101516001600160801b03166000145b156106595781925060009350506106aa565b826001600160801b031660000361067557809350819250610696565b806001600160801b0316846001600160801b03161115610696578093508192505b505b806106a281613b25565b915050610552565b506001600160801b03811615610741576001600160801b0381811660009081526004602052604090206106de918416612262565b8585815181106106f0576106f0613b0f565b6020026020010181905250600183826001600160801b03168151811061071857610718613b0f565b6020026020010181815161072c9190613aef565b6001600160801b031690525060009050610747565b5061075a565b508261075281613b4b565b935050610545565b5050915091565b6000546040516312d9a6ad60e01b815260008051602061419b83398151915260048201819052336024830152916201000090046001600160a01b0316906312d9a6ad9060440160006040518083038186803b1580156107bf57600080fd5b505afa1580156107d3573d6000803e3d6000fd5b5050505060005b6001600160801b03811683111561098c5760006108228585846001600160801b031681811061080b5761080b613b0f565b905060200281019061081d9190613b64565b6123d0565b6001600160801b0380821660009081526002602052604081206003015492935091811691906108c39088908890871681811061086057610860613b0f565b90506020028101906108729190613b64565b8080601f01602080910402602001604051908101604052809392919081815260200183838082843760009201829052506001600160801b038916815260046020526040902093925086915050612425565b90508061091b578686856001600160801b03168181106108e5576108e5613b0f565b90506020028101906108f79190613b64565b6040516337bc38a560e21b8152600401610912929190613bd3565b60405180910390fd5b60088787866001600160801b031681811061093857610938613b0f565b905060200281019061094a9190613b64565b604051610958929190613be7565b90815260405190819003602001902080546001600160801b031916905550829150610984905081613b25565b9150506107da565b5082829050600560008282546109a29190613bf7565b90915550506040517f9b3c43de1c4440da470f4b2b750fb6ebae2d6684dac752e4ee4d7fb7ac1b654d906109d99085908590613c4f565b60405180910390a1505050565b6000546040516312d9a6ad60e01b815260008051602061419b83398151915260048201819052336024830152916201000090046001600160a01b0316906312d9a6ad9060440160006040518083038186803b158015610a4457600080fd5b505afa158015610a58573d6000803e3d6000fd5b5050505081610a66816126e0565b6000610a718561270a565b6001600160a01b03948516600081815260036020818152604080842080546001600160801b039097166001600160801b0319978816811790915584526002825280842060010180546001600160a01b03191690951790945598909716815295909652949093208054909416909355505050565b60606000610af18361270a565b6001600160801b03811660009081526004602052604081205491925003610b185750919050565b6001600160801b03818116600090815260026020908152604080832060030154600490925290912054610b75929190911690610b5690600190613bf7565b6001600160801b0384166000908152600460205260409020919061275d565b9392505050565b6000610b88600661299e565b905090565b6000546040516312d9a6ad60e01b815260008051602061419b83398151915260048201819052336024830152916201000090046001600160a01b0316906312d9a6ad9060440160006040518083038186803b158015610beb57600080fd5b505afa158015610bff573d6000803e3d6000fd5b5050505082610c0d816126e0565b82610c17816126e0565b6001600160a01b0385166000908152600360205260409020546001600160801b031615610c6157604051625290b360e11b81526001600160a01b0386166004820152602401610912565b600180548190600090610c7e9083906001600160801b0316613aef565b92506101000a8154816001600160801b0302191690836001600160801b03160217905550610cd26040805160a081018252600080825260208201819052918101829052606080820152608081019190915290565b87878080601f01602080910402602001604051908101604052809392919081815260200183838082843760009201829052506060860194855260018087526001600160a01b038b81166020808a019182528e83166040808c0182815286549288526003845281882080546001600160801b039485166001600160801b0319909116179055865490921687526002928390529095208a51815493516001600160a81b0319909416901515610100600160a81b0319161761010093851693909302929092178255935192810180546001600160a01b031916939092169290921790559451869594509084019250610dc8915082613d35565b5060809190910151600390910180546001600160801b0319166001600160801b03909216919091179055604080516001600160a01b038089168252871660208201527f0780dc183feb0e4f9714cd802b3c0a21894b7ccb4172c992569d2acb5d45f91c910160405180910390a15050505050505050565b6040805160a081018252600080825260208201819052918101829052606080820152608081018290529080610e738461270a565b6001600160801b038116600090815260026020818152604092839020835160a081018552815460ff8116151582526001600160a01b0361010090910481169382019390935260018201549092169382019390935290820180549394509092606084019190610ee090613cb5565b80601f0160208091040260200160405190810160405280929190818152602001828054610f0c90613cb5565b8015610f595780601f10610f2e57610100808354040283529160200191610f59565b820191906000526020600020905b815481529060010190602001808311610f3c57829003601f168201915b5050509183525050600391909101546001600160801b03908116602092830152831660009081526004909152604090205490935091509193909250565b600060029054906101000a90046001600160a01b03166001600160a01b0316635a8ee7856040518163ffffffff1660e01b81526004016020604051808303816000875af1158015610feb573d6000803e3d6000fd5b505050506040513d601f19601f8201168201806040525081019061100f9190613df4565b1561102d5760405163cbebc1d360e01b815260040160405180910390fd5b600081900361104f57604051638795a19360e01b815260040160405180910390fd5b600061105a3361270a565b6001600160801b03811660009081526002602052604090205490915060ff166110965760405163d35a343f60e01b815260040160405180910390fd5b6001600160801b038181166000908152600460205260409020546110bb908490613e16565b11156110da5760405163b2203add60e01b815260040160405180910390fd5b60005b6001600160801b03811683111561133c578383826001600160801b031681811061110957611109613b0f565b905060200281019061111b9190613e29565b6111259080613b64565b905060301461114757604051634f88323960e11b815260040160405180910390fd5b8383826001600160801b031681811061116257611162613b0f565b90506020028101906111749190613e29565b611182906020810190613b64565b90506060146111a457604051634be6321b60e01b815260040160405180910390fd5b60088484836001600160801b03168181106111c1576111c1613b0f565b90506020028101906111d39190613e29565b6111dd9080613b64565b6040516111eb929190613be7565b908152604051908190036020019020546001600160801b03161561125b578383826001600160801b031681811061122457611224613b0f565b90506020028101906112369190613e29565b6112409080613b64565b60405163358b603d60e01b8152600401610912929190613bd3565b6112b28484836001600160801b031681811061127957611279613b0f565b905060200281019061128b9190613e29565b61129490613e49565b6001600160801b0384166000908152600460205260409020906129a8565b508160088585846001600160801b03168181106112d1576112d1613b0f565b90506020028101906112e39190613e29565b6112ed9080613b64565b6040516112fb929190613be7565b90815260405190819003602001902080546001600160801b03929092166001600160801b03199092169190911790558061133481613b25565b9150506110dd565b5082829050600560008282546113529190613e16565b909155505060405133907fdf1cf9e0880be23b22c16a133756c26cf954f86ac43a40099e9c3969df9feb549061138b9086908690613ece565b60405180910390a2505050565b600260208190526000918252604090912080546001820154928201805460ff8316946001600160a01b0361010090940484169493169291906113d990613cb5565b80601f016020809104026020016040519081016040528092919081815260200182805461140590613cb5565b80156114525780601f1061142757610100808354040283529160200191611452565b820191906000526020600020905b81548152906001019060200180831161143557829003601f168201915b505050600390930154919250506001600160801b031685565b606060006114788361270a565b6001600160801b03808216600090815260026020526040812060030154929350911690036114a65750919050565b6001600160801b03808216600090815260026020526040812060030154610b75926114d49160019116613f76565b6001600160801b03848116600090815260046020526040902092911661275d565b6000546040516312d9a6ad60e01b815260008051602061419b83398151915260048201819052336024830152916201000090046001600160a01b0316906312d9a6ad9060440160006040518083038186803b15801561155357600080fd5b505afa158015611567573d6000803e3d6000fd5b50505050600061157685612a34565b905060028101611587848683613f96565b505050505050565b6060600060029054906101000a90046001600160a01b03166001600160a01b031663f712312c6040518163ffffffff1660e01b81526004016020604051808303816000875af11580156115e6573d6000803e3d6000fd5b505050506040513d601f19601f8201168201806040525081019061160a9190614056565b6001600160a01b0316336001600160a01b03161461163b57604051633c62af8760e11b815260040160405180910390fd5b816001600160401b038111156116535761165361368a565b60405190808252806020026020018201604052801561169857816020015b60408051808201909152606080825260208201528152602001906001900390816116715790505b50905060005b828110156118a95760006116bd85858481811061080b5761080b613b0f565b6001600160801b03811660009081526002602052604090205490915060ff166116f95760405163d35a343f60e01b815260040160405180910390fd5b6001600160801b038181166000908152600260209081526040808320600301546004909252909120549116908103611744576040516362d3fc2f60e11b815260040160405180910390fd5b6001600160801b038281166000908152600460205260408120909161176b91908416612262565b905086868581811061177f5761177f613b0f565b90506020028101906117919190613b64565b60405161179f929190613be7565b6040518091039020816000015180519060200120146117fa5780518787868181106117cc576117cc613b0f565b90506020028101906117de9190613b64565b60405163414d69ed60e01b815260040161091293929190614073565b6001600160801b038084166000908152600260205260408120600301805460019391929161182a91859116613aef565b92506101000a8154816001600160801b0302191690836001600160801b031602179055508085858151811061186157611861613b0f565b60209081029190910101526001600160801b038216608084901b6001600160801b03191617611891600682612a5e565b505050505080806118a190613b4b565b91505061169e565b5082829050600560008282546118bf9190613bf7565b90915550506040517f0f4e549c79372febae129e43b9a8b39280d5fab140fdf26f839ae647f857d3e6906118f69085908590613c4f565b60405180910390a15b92915050565b600054610100900460ff16158080156119255750600054600160ff909116105b8061193f5750303b15801561193f575060005460ff166001145b6119a25760405162461bcd60e51b815260206004820152602e60248201527f496e697469616c697a61626c653a20636f6e747261637420697320616c72656160448201526d191e481a5b9a5d1a585b1a5e995960921b6064820152608401610912565b6000805460ff1916600117905580156119c5576000805461ff0019166101001790555b816119cf816126e0565b506000805462010000600160b01b031916620100006001600160a01b038516021790558015611a38576000805461ff0019169055604051600181527f7f26b83ff96e1f2b6a682f133852f6798a09c465da95921460cefb38474024989060200160405180910390a15b5050565b6000546040516312d9a6ad60e01b815260008051602061419b83398151915260048201819052336024830152916201000090046001600160a01b0316906312d9a6ad9060440160006040518083038186803b158015611a9a57600080fd5b505afa158015611aae573d6000803e3d6000fd5b505050506000611abd83612a34565b805490915060ff1615611ae35760405163f4ef2b3f60e01b815260040160405180910390fd5b805460ff191660011781556040516001600160a01b038416907f9e532d260bd7dde07708a6b1f7c64042546243d79bac23514cd74fcfc1a01fe490600090a2505050565b6000546040516312d9a6ad60e01b815260008051602061419b83398151915260048201819052336024830152916201000090046001600160a01b0316906312d9a6ad9060440160006040518083038186803b158015611b8557600080fd5b505afa158015611b99573d6000803e3d6000fd5b5050505081611ba7816126e0565b6000611bb285612a34565b80546001600160a01b0390951661010002610100600160a81b03199095169490941790935550505050565b6000546040516312d9a6ad60e01b815260008051602061419b83398151915260048201819052336024830152916201000090046001600160a01b0316906312d9a6ad9060440160006040518083038186803b158015611c3b57600080fd5b505afa158015611c4f573d6000803e3d6000fd5b5050505060005b82811015611e7b576000611c7585858481811061080b5761080b613b0f565b6001600160801b03808216600090815260026020526040812060030154929350911690819003611cde57858584818110611cb157611cb1613b0f565b9050602002810190611cc39190613b64565b604051639b0a4abd60e01b8152600401610912929190613bd3565b6000611d0c83611cef600185613f76565b6001600160801b031660809190911b6001600160801b0319161790565b90506000611d1b600683612a6a565b90506000611d97898988818110611d3457611d34613b0f565b9050602002810190611d469190613b64565b8080601f01602080910402602001604051908101604052809392919081815260200183838082843760009201829052506001600160801b038b16815260046020526040902093925088915050612a76565b9050801580611da4575081155b15611dbb57888887818110611cb157611cb1613b0f565b6001600160801b0380861660009081526002602052604081206003018054600193919291611deb91859116613f76565b92506101000a8154816001600160801b0302191690836001600160801b031602179055506008898988818110611e2357611e23613b0f565b9050602002810190611e359190613b64565b604051611e43929190613be7565b90815260405190819003602001902080546001600160801b031916905550849350611e739250839150613b4b9050565b915050611c56565b507f790d3361478ddb811f265789ce5dddc293527ee2bc8951304a9de1d849600bb983836040516109d9929190613c4f565b60606000611ebb600661299e565b905083831080611ec9575080155b15611f02576040805160008082526020820190925290611ef9565b6060815260200190600190039081611ee45790505b509150506118ff565b6000611f0f600183613bf7565b905080851115611f4e576040805160008082526020820190925290611f44565b6060815260200190600190039081611f2f5790505b50925050506118ff565b80841115611f5a578093505b6000611f668686613bf7565b611f71906001613e16565b90506000816001600160401b03811115611f8d57611f8d61368a565b604051908082528060200260200182016040528015611fc057816020015b6060815260200190600190039081611fab5790505b50905060005b82811015612053576000611fe5611fdd8a84613e16565b600690612f39565b608081901c60008181526004602052604081209293509091839190612013906001600160801b038416612262565b51905061201f81612f45565b86868151811061203157612031613b0f565b602002602001018190525050505050808061204b90613b4b565b915050611fc6565b509695505050505050565b6000546040516312d9a6ad60e01b815260008051602061419b83398151915260048201819052336024830152916201000090046001600160a01b0316906312d9a6ad9060440160006040518083038186803b1580156120bc57600080fd5b505afa1580156120d0573d6000803e3d6000fd5b50506040516370a0823160e01b8152306004820152600092506001600160a01b03851691506370a0823190602401602060405180830381865afa15801561211b573d6000803e3d6000fd5b505050506040513d601f19601f8201168201806040525081019061213f91906140a3565b90508060000361216257604051637dd28aa760e11b815260040160405180910390fd5b6121766001600160a01b03841633836130e4565b505050565b6000546040516312d9a6ad60e01b815260008051602061419b83398151915260048201819052336024830152916201000090046001600160a01b0316906312d9a6ad9060440160006040518083038186803b1580156121d957600080fd5b505afa1580156121ed573d6000803e3d6000fd5b5050505060006121fc83612a34565b805490915060ff166122215760405163c03ee92b60e01b815260040160405180910390fd5b805460ff191681556040516001600160a01b038416907f23cd406c7cafe6d88c3f1c1cc16e438745a4236aec25906be2046ca16c36bd1e90600090a2505050565b604080518082019091526060808252602082015282600001828154811061228b5761228b613b0f565b90600052602060002090600202016040518060400160405290816000820180546122b490613cb5565b80601f01602080910402602001604051908101604052809291908181526020018280546122e090613cb5565b801561232d5780601f106123025761010080835404028352916020019161232d565b820191906000526020600020905b81548152906001019060200180831161231057829003601f168201915b5050505050815260200160018201805461234690613cb5565b80601f016020809104026020016040519081016040528092919081815260200182805461237290613cb5565b80156123bf5780601f10612394576101008083540402835291602001916123bf565b820191906000526020600020905b8154815290600101906020018083116123a257829003601f168201915b505050505081525050905092915050565b6000600883836040516123e4929190613be7565b908152604051908190036020019020546001600160801b0316905060008190036118ff578282604051636d078a7360e01b8152600401610912929190613bd3565b600080846001018460405161243a91906140bc565b9081526020016040518091039020549050806000146126d5576000612460600183613bf7565b9050836001600160801b031681101561247e57600092505050610b75565b855460009061248f90600190613bf7565b90508181146126625760008760000182815481106124af576124af613b0f565b90600052602060002090600202016040518060400160405290816000820180546124d890613cb5565b80601f016020809104026020016040519081016040528092919081815260200182805461250490613cb5565b80156125515780601f1061252657610100808354040283529160200191612551565b820191906000526020600020905b81548152906001019060200180831161253457829003601f168201915b5050505050815260200160018201805461256a90613cb5565b80601f016020809104026020016040519081016040528092919081815260200182805461259690613cb5565b80156125e35780601f106125b8576101008083540402835291602001916125e3565b820191906000526020600020905b8154815290600101906020018083116125c657829003601f168201915b50505050508152505090508088600001848154811061260457612604613b0f565b6000918252602090912082516002909202019081906126239082613d35565b50602082015160018201906126389082613d35565b5050815160405186925060018b0191612650916140bc565b90815260405190819003602001902055505b8654879080612673576126736140ce565b600082815260208120600019909201916002830201906126938282613533565b6126a1600183016000613533565b5050905586600101866040516126b791906140bc565b90815260200160405180910390206000905560019350505050610b75565b506000949350505050565b6001600160a01b03811661270757604051631e7d738760e21b815260040160405180910390fd5b50565b6001600160a01b0381166000908152600360205260408120546001600160801b0316908190036127585760405163d77a5a4f60e01b81526001600160a01b0383166004820152602401610912565b919050565b825460609060009061277190600190613bf7565b9050808411156127815750610b75565b8083111561278d578092505b6127978484613bf7565b6127a2906001613e16565b6001600160401b038111156127b9576127b961368a565b6040519080825280602002602001820160405280156127fe57816020015b60408051808201909152606080825260208201528152602001906001900390816127d75790505b50915060005b825181101561299557856128188287613e16565b8154811061282857612828613b0f565b906000526020600020906002020160405180604001604052908160008201805461285190613cb5565b80601f016020809104026020016040519081016040528092919081815260200182805461287d90613cb5565b80156128ca5780601f1061289f576101008083540402835291602001916128ca565b820191906000526020600020905b8154815290600101906020018083116128ad57829003601f168201915b505050505081526020016001820180546128e390613cb5565b80601f016020809104026020016040519081016040528092919081815260200182805461290f90613cb5565b801561295c5780601f106129315761010080835404028352916020019161295c565b820191906000526020600020905b81548152906001019060200180831161293f57829003601f168201915b50505050508152505083828151811061297757612977613b0f565b6020026020010181905250808061298d90613b4b565b915050612804565b50509392505050565b60006118ff825490565b60006129b8838360000151613136565b612a2c578254600181018455600084815260209020835184926002029091019081906129e49082613d35565b50602082015160018201906129f99082613d35565b5050835483516040519192506001860191612a1491906140bc565b908152604051908190036020019020555060016118ff565b5060006118ff565b600080612a408361270a565b6001600160801b031660009081526002602052604090209392505050565b6000610b758383613163565b6000610b7583836131aa565b6000808460010184604051612a8b91906140bc565b908152602001604051809103902054905080600014158015612ab557506001600160801b03831615155b156126d5576000612ac7600183613bf7565b90506000612ad6600186613f76565b87546001600160801b03919091169150600090612af590600190613bf7565b905081831115612b0c576000945050505050610b75565b818314612ce8576000886000018381548110612b2a57612b2a613b0f565b9060005260206000209060020201604051806040016040529081600082018054612b5390613cb5565b80601f0160208091040260200160405190810160405280929190818152602001828054612b7f90613cb5565b8015612bcc5780601f10612ba157610100808354040283529160200191612bcc565b820191906000526020600020905b815481529060010190602001808311612baf57829003601f168201915b50505050508152602001600182018054612be590613cb5565b80601f0160208091040260200160405190810160405280929190818152602001828054612c1190613cb5565b8015612c5e5780601f10612c3357610100808354040283529160200191612c5e565b820191906000526020600020905b815481529060010190602001808311612c4157829003601f168201915b505050505081525050905080896000018581548110612c7f57612c7f613b0f565b600091825260209091208251600290920201908190612c9e9082613d35565b5060208201516001820190612cb39082613d35565b50612cc391508590506001613e16565b815160405160018c0191612cd6916140bc565b90815260405190819003602001902055505b81811115612ec5576000886000018281548110612d0757612d07613b0f565b9060005260206000209060020201604051806040016040529081600082018054612d3090613cb5565b80601f0160208091040260200160405190810160405280929190818152602001828054612d5c90613cb5565b8015612da95780601f10612d7e57610100808354040283529160200191612da9565b820191906000526020600020905b815481529060010190602001808311612d8c57829003601f168201915b50505050508152602001600182018054612dc290613cb5565b80601f0160208091040260200160405190810160405280929190818152602001828054612dee90613cb5565b8015612e3b5780601f10612e1057610100808354040283529160200191612e3b565b820191906000526020600020905b815481529060010190602001808311612e1e57829003601f168201915b505050505081525050905080896000018481548110612e5c57612e5c613b0f565b600091825260209091208251600290920201908190612e7b9082613d35565b5060208201516001820190612e909082613d35565b50612ea091508490506001613e16565b815160405160018c0191612eb3916140bc565b90815260405190819003602001902055505b8754889080612ed657612ed66140ce565b60008281526020812060001990920191600283020190612ef68282613533565b612f04600183016000613533565b505090558760010187604051612f1a91906140bc565b9081526020016040518091039020600090556001945050505050610b75565b6000610b7583836132a4565b6060600082516002612f5791906140e4565b6001600160401b03811115612f6e57612f6e61368a565b6040519080825280601f01601f191660200182016040528015612f98576020820181803683370190505b5090506f181899199a1a9b1b9c1cb0b131b232b360811b60005b84518110156130ba57816010868381518110612fd057612fd0613b0f565b0160200151612fe2919060f81c614119565b60ff1660108110612ff557612ff5613b0f565b1a60f81b836130058360026140e4565b8151811061301557613015613b0f565b60200101906001600160f81b031916908160001a90535081601086838151811061304157613041613b0f565b0160200151613053919060f81c61413b565b60ff166010811061306657613066613b0f565b1a60f81b836130768360026140e4565b613081906001613e16565b8151811061309157613091613b0f565b60200101906001600160f81b031916908160001a905350806130b281613b4b565b915050612fb2565b50816040516020016130cc919061415d565b60405160208183030381529060405292505050919050565b604080516001600160a01b038416602482015260448082018490528251808303909101815260649091019091526020810180516001600160e01b031663a9059cbb60e01b1790526121769084906132ce565b6000826001018260405161314a91906140bc565b9081526040519081900360200190205415159392505050565b6000818152600183016020526040812054612a2c575081546001818101845560008481526020808220909301849055845484825282860190935260409020919091556118ff565b600081815260018301602052604081205480156132935760006131ce600183613bf7565b85549091506000906131e290600190613bf7565b905081811461324757600086600001828154811061320257613202613b0f565b906000526020600020015490508087600001848154811061322557613225613b0f565b6000918252602080832090910192909255918252600188019052604090208390555b8554869080613258576132586140ce565b6001900381819060005260206000200160009055905585600101600086815260200190815260200160002060009055600193505050506118ff565b60009150506118ff565b5092915050565b60008260000182815481106132bb576132bb613b0f565b9060005260206000200154905092915050565b6000613323826040518060400160405280602081526020017f5361666545524332303a206c6f772d6c6576656c2063616c6c206661696c6564815250856001600160a01b03166133a39092919063ffffffff16565b90508051600014806133445750808060200190518101906133449190613df4565b6121765760405162461bcd60e51b815260206004820152602a60248201527f5361666545524332303a204552433230206f7065726174696f6e20646964206e6044820152691bdd081cdd58d8d9595960b21b6064820152608401610912565b60606133b284846000856133ba565b949350505050565b60608247101561341b5760405162461bcd60e51b815260206004820152602660248201527f416464726573733a20696e73756666696369656e742062616c616e636520666f6044820152651c8818d85b1b60d21b6064820152608401610912565b600080866001600160a01b0316858760405161343791906140bc565b60006040518083038185875af1925050503d8060008114613474576040519150601f19603f3d011682016040523d82523d6000602084013e613479565b606091505b509150915061348a87838387613495565b979650505050505050565b606083156135045782516000036134fd576001600160a01b0385163b6134fd5760405162461bcd60e51b815260206004820152601d60248201527f416464726573733a2063616c6c20746f206e6f6e2d636f6e74726163740000006044820152606401610912565b50816133b2565b6133b283838151156135195781518083602001fd5b8060405162461bcd60e51b81526004016109129190614187565b50805461353f90613cb5565b6000825580601f1061354f575050565b601f01602090049060005260206000209081019061270791905b8082111561357d5760008155600101613569565b5090565b60006020828403121561359357600080fd5b5035919050565b60005b838110156135b557818101518382015260200161359d565b50506000910152565b600081518084526135d681602086016020860161359a565b601f01601f19169290920160200192915050565b600082825180855260208086019550808260051b84010181860160005b8481101561365b57601f1986840301895281516040815181865261362d828701826135be565b9150508582015191508481038686015261364781836135be565b9a86019a9450505090830190600101613607565b5090979650505050505050565b60408152600061367b60408301856135ea565b90508260208301529392505050565b634e487b7160e01b600052604160045260246000fd5b600082601f8301126136b157600080fd5b81356001600160401b03808211156136cb576136cb61368a565b604051601f8301601f19908116603f011681019082821181831017156136f3576136f361368a565b8160405283815286602085880101111561370c57600080fd5b836020870160208301376000602085830101528094505050505092915050565b60006020828403121561373e57600080fd5b81356001600160401b0381111561375457600080fd5b6133b2848285016136a0565b60008083601f84011261377257600080fd5b5081356001600160401b0381111561378957600080fd5b6020830191508360208260051b85010111156137a457600080fd5b9250929050565b600080602083850312156137be57600080fd5b82356001600160401b038111156137d457600080fd5b6137e085828601613760565b90969095509350505050565b6001600160a01b038116811461270757600080fd5b6000806040838503121561381457600080fd5b823561381f816137ec565b9150602083013561382f816137ec565b809150509250929050565b60006020828403121561384c57600080fd5b8135610b75816137ec565b602081526000610b7560208301846135ea565b60006020828403121561387c57600080fd5b81356001600160801b0381168114610b7557600080fd5b60008083601f8401126138a557600080fd5b5081356001600160401b038111156138bc57600080fd5b6020830191508360208285010111156137a457600080fd5b600080600080606085870312156138ea57600080fd5b84356001600160401b0381111561390057600080fd5b61390c87828801613893565b9095509350506020850135613920816137ec565b91506040850135613930816137ec565b939692955090935050565b606081528351151560608201526000602085015160018060a01b0380821660808501528060408801511660a08501525050606085015160a060c08401526139866101008401826135be565b608096909601516001600160801b0390811660e085015294851660208401525050911660409091015290565b85151581526001600160a01b0385811660208301528416604082015260a0606082018190526000906139e6908301856135be565b90506001600160801b03831660808301529695505050505050565b600080600060408486031215613a1657600080fd5b8335613a21816137ec565b925060208401356001600160401b03811115613a3c57600080fd5b613a4886828701613893565b9497909650939450505050565b60008060408385031215613a6857600080fd5b50508035926020909101359150565b6000602080830181845280855180835260408601915060408160051b870101925083870160005b82811015613acc57603f19888603018452613aba8583516135be565b94509285019290850190600101613a9e565b5092979650505050505050565b634e487b7160e01b600052601160045260246000fd5b6001600160801b0381811683821601908082111561329d5761329d613ad9565b634e487b7160e01b600052603260045260246000fd5b60006001600160801b03808316818103613b4157613b41613ad9565b6001019392505050565b600060018201613b5d57613b5d613ad9565b5060010190565b6000808335601e19843603018112613b7b57600080fd5b8301803591506001600160401b03821115613b9557600080fd5b6020019150368190038213156137a457600080fd5b81835281816020850137506000828201602090810191909152601f909101601f19169091010190565b6020815260006133b2602083018486613baa565b8183823760009101908152919050565b818103818111156118ff576118ff613ad9565b6000808335601e19843603018112613c2157600080fd5b83016020810192503590506001600160401b03811115613c4057600080fd5b8036038213156137a457600080fd5b60208082528181018390526000906040600585901b8401810190840186845b87811015613ca857868403603f19018352613c89828a613c0a565b613c94868284613baa565b955050509184019190840190600101613c6e565b5091979650505050505050565b600181811c90821680613cc957607f821691505b602082108103613ce957634e487b7160e01b600052602260045260246000fd5b50919050565b601f82111561217657600081815260208120601f850160051c81016020861015613d165750805b601f850160051c820191505b8181101561158757828155600101613d22565b81516001600160401b03811115613d4e57613d4e61368a565b613d6281613d5c8454613cb5565b84613cef565b602080601f831160018114613d975760008415613d7f5750858301515b600019600386901b1c1916600185901b178555611587565b600085815260208120601f198616915b82811015613dc657888601518255948401946001909101908401613da7565b5085821015613de45787850151600019600388901b60f8161c191681555b5050505050600190811b01905550565b600060208284031215613e0657600080fd5b81518015158114610b7557600080fd5b808201808211156118ff576118ff613ad9565b60008235603e19833603018112613e3f57600080fd5b9190910192915050565b600060408236031215613e5b57600080fd5b604051604081016001600160401b038282108183111715613e7e57613e7e61368a565b816040528435915080821115613e9357600080fd5b613e9f368387016136a0565b83526020850135915080821115613eb557600080fd5b50613ec2368286016136a0565b60208301525092915050565b60208082528181018390526000906040808401600586901b850182018785805b89811015613f6757888403603f190185528235368c9003603e19018112613f13578283fd5b8b01613f1f8180613c0a565b888752613f2f8988018284613baa565b915050613f3e89830183613c0a565b92508682038a880152613f52828483613baa565b978a0197965050509287019250600101613eee565b50919998505050505050505050565b6001600160801b0382811682821603908082111561329d5761329d613ad9565b6001600160401b03831115613fad57613fad61368a565b613fc183613fbb8354613cb5565b83613cef565b6000601f841160018114613ff55760008515613fdd5750838201355b600019600387901b1c1916600186901b17835561404f565b600083815260209020601f19861690835b828110156140265786850135825560209485019460019092019101614006565b50868210156140435760001960f88860031b161c19848701351681555b505060018560011b0183555b5050505050565b60006020828403121561406857600080fd5b8151610b75816137ec565b60408152600061408660408301866135be565b8281036020840152614099818587613baa565b9695505050505050565b6000602082840312156140b557600080fd5b5051919050565b60008251613e3f81846020870161359a565b634e487b7160e01b600052603160045260246000fd5b60008160001904831182151516156140fe576140fe613ad9565b500290565b634e487b7160e01b600052601260045260246000fd5b600060ff83168061412c5761412c614103565b8060ff84160491505092915050565b600060ff83168061414e5761414e614103565b8060ff84160691505092915050565b61060f60f31b81526000825161417a81600285016020870161359a565b9190910160020192915050565b602081526000610b7560208301846135be56fe4ff52032f36e32ac782042a01802e20394d4255c84a3c046490be98ab632691ba26469706673582212208a42e2e60d32c5561045db4c015fc515505537ba473741abaf7f22980e8647db64736f6c63430008100033",
    "linkReferences": {}
  },
  "methodIdentifiers": {
    "AccessControlManager()": "902340a1",
    "addNewValidatorDetails((bytes,bytes)[])": "60ec5216",
    "addOperator(string,address,address)": "54741d6d",
    "deleteActiveValidators(bytes[])": "eda74e71",
    "deletePendingValidators(bytes[])": "242eba0e",
    "disableOperator(address)": "f56408ed",
    "enableOperator(address)": "dd307b99",
    "getNextValidatorDetails(uint256)": "023e8ecb",
    "getOperator(address)": "5865c60c",
    "getOperatorForOperatorId(uint128)": "6847aea0",
    "getOperatorIdForAddress(address)": "f75f35b9",
    "getOperatorIdForPubKey(bytes)": "02f56f04",
    "getOperatorsActiveValidatorDetails(address)": "7ea790ee",
    "getOperatorsPendingValidatorDetails(address)": "422544d2",
    "getPoRAddressList(uint256,uint256)": "f3d4902a",
    "getPoRAddressListLength()": "4f20b888",
    "getRewardDetailsForOperatorId(uint128)": "519d97fe",
    "initialize(address)": "c4d66de8",
    "numOperators()": "bd820688",
    "numPendingValidators()": "e3b2918b",
    "updateOperatorControllingAddress(address,address)": "32f73258",
    "updateOperatorName(address,string)": "9f5db69c",
    "updateOperatorRewardAddress(address,address)": "e8f28a6c",
    "usePubKeysForValidatorSetup(bytes[])": "c3953502",
    "withdrawERC20(address)": "f4f3b200"
  },
  "storageLayout": {
    "storage": [
      {
        "astId": 104,
        "contract": "out/NodeOperatorRegistry/contracts/implementations/NodeOperatorRegistry.sol:NodeOperatorRegistry",
        "label": "_initialized",
        "offset": 0,
        "slot": "0",
        "type": "t_uint8"
      },
      {
        "astId": 107,
        "contract": "out/NodeOperatorRegistry/contracts/implementations/NodeOperatorRegistry.sol:NodeOperatorRegistry",
        "label": "_initializing",
        "offset": 1,
        "slot": "0",
        "type": "t_bool"
      },
      {
        "astId": 2145,
        "contract": "out/NodeOperatorRegistry/contracts/implementations/NodeOperatorRegistry.sol:NodeOperatorRegistry",
        "label": "AccessControlManager",
        "offset": 2,
        "slot": "0",
        "type": "t_contract(IAccessControlManager)3860"
      },
      {
        "astId": 2148,
        "contract": "out/NodeOperatorRegistry/contracts/implementations/NodeOperatorRegistry.sol:NodeOperatorRegistry",
        "label": "numOperators",
        "offset": 0,
        "slot": "1",
        "type": "t_uint128"
      },
      {
        "astId": 2153,
        "contract": "out/NodeOperatorRegistry/contracts/implementations/NodeOperatorRegistry.sol:NodeOperatorRegistry",
        "label": "getOperatorForOperatorId",
        "offset": 0,
        "slot": "2",
        "type": "t_mapping(t_uint128,t_struct(Operator)3937_storage)"
      },
      {
        "astId": 2158,
        "contract": "out/NodeOperatorRegistry/contracts/implementations/NodeOperatorRegistry.sol:NodeOperatorRegistry",
        "label": "getOperatorIdForAddress",
        "offset": 0,
        "slot": "3",
        "type": "t_mapping(t_address,t_uint128)"
      },
      {
        "astId": 2163,
        "contract": "out/NodeOperatorRegistry/contracts/implementations/NodeOperatorRegistry.sol:NodeOperatorRegistry",
        "label": "operatorIdToValidatorDetails",
        "offset": 0,
        "slot": "4",
        "type": "t_mapping(t_uint128,t_struct(ValidatorDetailsSet)4456_storage)"
      },
      {
        "astId": 2166,
        "contract": "out/NodeOperatorRegistry/contracts/implementations/NodeOperatorRegistry.sol:NodeOperatorRegistry",
        "label": "numPendingValidators",
        "offset": 0,
        "slot": "5",
        "type": "t_uint256"
      },
      {
        "astId": 2169,
        "contract": "out/NodeOperatorRegistry/contracts/implementations/NodeOperatorRegistry.sol:NodeOperatorRegistry",
        "label": "activeValidatorIndexes",
        "offset": 0,
        "slot": "6",
        "type": "t_struct(Bytes32Set)879_storage"
      },
      {
        "astId": 2174,
        "contract": "out/NodeOperatorRegistry/contracts/implementations/NodeOperatorRegistry.sol:NodeOperatorRegistry",
        "label": "getOperatorIdForPubKey",
        "offset": 0,
        "slot": "8",
        "type": "t_mapping(t_bytes_memory_ptr,t_uint128)"
      }
    ],
    "types": {
      "t_address": {
        "encoding": "inplace",
        "label": "address",
        "numberOfBytes": "20"
      },
      "t_array(t_bytes32)dyn_storage": {
        "encoding": "dynamic_array",
        "label": "bytes32[]",
        "numberOfBytes": "32",
        "base": "t_bytes32"
      },
      "t_array(t_struct(ValidatorDetails)3926_storage)dyn_storage": {
        "encoding": "dynamic_array",
        "label": "struct INodeOperatorRegistry.ValidatorDetails[]",
        "numberOfBytes": "32",
        "base": "t_struct(ValidatorDetails)3926_storage"
      },
      "t_bool": {
        "encoding": "inplace",
        "label": "bool",
        "numberOfBytes": "1"
      },
      "t_bytes32": {
        "encoding": "inplace",
        "label": "bytes32",
        "numberOfBytes": "32"
      },
      "t_bytes_memory_ptr": {
        "encoding": "bytes",
        "label": "bytes",
        "numberOfBytes": "32"
      },
      "t_bytes_storage": {
        "encoding": "bytes",
        "label": "bytes",
        "numberOfBytes": "32"
      },
      "t_contract(IAccessControlManager)3860": {
        "encoding": "inplace",
        "label": "contract IAccessControlManager",
        "numberOfBytes": "20"
      },
      "t_mapping(t_address,t_uint128)": {
        "encoding": "mapping",
        "key": "t_address",
        "label": "mapping(address => uint128)",
        "numberOfBytes": "32",
        "value": "t_uint128"
      },
      "t_mapping(t_bytes32,t_uint256)": {
        "encoding": "mapping",
        "key": "t_bytes32",
        "label": "mapping(bytes32 => uint256)",
        "numberOfBytes": "32",
        "value": "t_uint256"
      },
      "t_mapping(t_bytes_memory_ptr,t_uint128)": {
        "encoding": "mapping",
        "key": "t_bytes_memory_ptr",
        "label": "mapping(bytes => uint128)",
        "numberOfBytes": "32",
        "value": "t_uint128"
      },
      "t_mapping(t_bytes_memory_ptr,t_uint256)": {
        "encoding": "mapping",
        "key": "t_bytes_memory_ptr",
        "label": "mapping(bytes => uint256)",
        "numberOfBytes": "32",
        "value": "t_uint256"
      },
      "t_mapping(t_uint128,t_struct(Operator)3937_storage)": {
        "encoding": "mapping",
        "key": "t_uint128",
        "label": "mapping(uint128 => struct INodeOperatorRegistry.Operator)",
        "numberOfBytes": "32",
        "value": "t_struct(Operator)3937_storage"
      },
      "t_mapping(t_uint128,t_struct(ValidatorDetailsSet)4456_storage)": {
        "encoding": "mapping",
        "key": "t_uint128",
        "label": "mapping(uint128 => struct EnumberableSetValidatorDetails.ValidatorDetailsSet)",
        "numberOfBytes": "32",
        "value": "t_struct(ValidatorDetailsSet)4456_storage"
      },
      "t_string_storage": {
        "encoding": "bytes",
        "label": "string",
        "numberOfBytes": "32"
      },
      "t_struct(Bytes32Set)879_storage": {
        "encoding": "inplace",
        "label": "struct EnumerableSetUpgradeable.Bytes32Set",
        "numberOfBytes": "64",
        "members": [
          {
            "astId": 878,
            "contract": "out/NodeOperatorRegistry/contracts/implementations/NodeOperatorRegistry.sol:NodeOperatorRegistry",
            "label": "_inner",
            "offset": 0,
            "slot": "0",
            "type": "t_struct(Set)685_storage"
          }
        ]
      },
      "t_struct(Operator)3937_storage": {
        "encoding": "inplace",
        "label": "struct INodeOperatorRegistry.Operator",
        "numberOfBytes": "128",
        "members": [
          {
            "astId": 3928,
            "contract": "out/NodeOperatorRegistry/contracts/implementations/NodeOperatorRegistry.sol:NodeOperatorRegistry",
            "label": "enabled",
            "offset": 0,
            "slot": "0",
            "type": "t_bool"
          },
          {
            "astId": 3930,
            "contract": "out/NodeOperatorRegistry/contracts/implementations/NodeOperatorRegistry.sol:NodeOperatorRegistry",
            "label": "rewardAddress",
            "offset": 1,
            "slot": "0",
            "type": "t_address"
          },
          {
            "astId": 3932,
            "contract": "out/NodeOperatorRegistry/contracts/implementations/NodeOperatorRegistry.sol:NodeOperatorRegistry",
            "label": "controllingAddress",
            "offset": 0,
            "slot": "1",
            "type": "t_address"
          },
          {
            "astId": 3934,
            "contract": "out/NodeOperatorRegistry/contracts/implementations/NodeOperatorRegistry.sol:NodeOperatorRegistry",
            "label": "name",
            "offset": 0,
            "slot": "2",
            "type": "t_string_storage"
          },
          {
            "astId": 3936,
            "contract": "out/NodeOperatorRegistry/contracts/implementations/NodeOperatorRegistry.sol:NodeOperatorRegistry",
            "label": "activeValidators",
            "offset": 0,
            "slot": "3",
            "type": "t_uint128"
          }
        ]
      },
      "t_struct(Set)685_storage": {
        "encoding": "inplace",
        "label": "struct EnumerableSetUpgradeable.Set",
        "numberOfBytes": "64",
        "members": [
          {
            "astId": 680,
            "contract": "out/NodeOperatorRegistry/contracts/implementations/NodeOperatorRegistry.sol:NodeOperatorRegistry",
            "label": "_values",
            "offset": 0,
            "slot": "0",
            "type": "t_array(t_bytes32)dyn_storage"
          },
          {
            "astId": 684,
            "contract": "out/NodeOperatorRegistry/contracts/implementations/NodeOperatorRegistry.sol:NodeOperatorRegistry",
            "label": "_indexes",
            "offset": 0,
            "slot": "1",
            "type": "t_mapping(t_bytes32,t_uint256)"
          }
        ]
      },
      "t_struct(ValidatorDetails)3926_storage": {
        "encoding": "inplace",
        "label": "struct INodeOperatorRegistry.ValidatorDetails",
        "numberOfBytes": "64",
        "members": [
          {
            "astId": 3923,
            "contract": "out/NodeOperatorRegistry/contracts/implementations/NodeOperatorRegistry.sol:NodeOperatorRegistry",
            "label": "pubKey",
            "offset": 0,
            "slot": "0",
            "type": "t_bytes_storage"
          },
          {
            "astId": 3925,
            "contract": "out/NodeOperatorRegistry/contracts/implementations/NodeOperatorRegistry.sol:NodeOperatorRegistry",
            "label": "signature",
            "offset": 0,
            "slot": "1",
            "type": "t_bytes_storage"
          }
        ]
      },
      "t_struct(ValidatorDetailsSet)4456_storage": {
        "encoding": "inplace",
        "label": "struct EnumberableSetValidatorDetails.ValidatorDetailsSet",
        "numberOfBytes": "64",
        "members": [
          {
            "astId": 4451,
            "contract": "out/NodeOperatorRegistry/contracts/implementations/NodeOperatorRegistry.sol:NodeOperatorRegistry",
            "label": "_values",
            "offset": 0,
            "slot": "0",
            "type": "t_array(t_struct(ValidatorDetails)3926_storage)dyn_storage"
          },
          {
            "astId": 4455,
            "contract": "out/NodeOperatorRegistry/contracts/implementations/NodeOperatorRegistry.sol:NodeOperatorRegistry",
            "label": "_indexes",
            "offset": 0,
            "slot": "1",
            "type": "t_mapping(t_bytes_memory_ptr,t_uint256)"
          }
        ]
      },
      "t_uint128": {
        "encoding": "inplace",
        "label": "uint128",
        "numberOfBytes": "16"
      },
      "t_uint256": {
        "encoding": "inplace",
        "label": "uint256",
        "numberOfBytes": "32"
      },
      "t_uint8": {
        "encoding": "inplace",
        "label": "uint8",
        "numberOfBytes": "1"
      }
    }
  },
  "id": 10
}