{
  "abi": [
    {
      "inputs": [],
      "name": "BotMethodsPaused",
      "type": "error"
    },
    {
      "inputs": [],
      "name": "CannotBeZeroAddress",
      "type": "error"
    },
    {
      "inputs": [],
      "name": "CoreMethodsPaused",
      "type": "error"
    },
    {
      "inputs": [],
      "name": "InvalidETHDeposit",
      "type": "error"
    },
    {
      "inputs": [],
      "name": "InvalidMethodCall",
      "type": "error"
    },
    {
      "inputs": [],
      "name": "NoTokensToWithdraw",
      "type": "error"
    },
    {
      "inputs": [],
      "name": "OperatorMethodsPaused",
      "type": "error"
    },
    {
      "inputs": [],
      "name": "WithdrawalsPaused",
      "type": "error"
    },
    {
      "inputs": [],
      "name": "BOT",
      "outputs": [
        {
          "internalType": "bytes32",
          "name": "",
          "type": "bytes32"
        }
      ],
      "stateMutability": "view",
      "type": "function"
    },
    {
      "inputs": [],
      "name": "PLATFORM_ADMIN",
      "outputs": [
        {
          "internalType": "bytes32",
          "name": "",
          "type": "bytes32"
        }
      ],
      "stateMutability": "view",
      "type": "function"
    }
  ],
  "bytecode": {
    "object": "0x60d6610039600b82828239805160001a60731461002c57634e487b7160e01b600052600060045260246000fd5b30600052607381538281f3fe7300000000000000000000000000000000000000003014608060405260043610603d5760003560e01c8063486277f6146042578063c1d0a7d814607a575b600080fd5b60687f902cbe3a02736af9827fb6a90bada39e955c0941e08f0c63b3a662a7b17a4e2b81565b60405190815260200160405180910390f35b60687f4ff52032f36e32ac782042a01802e20394d4255c84a3c046490be98ab632691b8156fea2646970667358221220b0d5ed178035e7a2269dda8667f50fd9573c909fa077b69bf65bd760740db8b864736f6c63430008100033",
    "linkReferences": {}
  },
  "methodIdentifiers": {
    "BOT()": "486277f6",
    "PLATFORM_ADMIN()": "c1d0a7d8"
  },
  "storageLayout": {
    "storage": [],
    "types": {}
  },
  "id": 16
}